S020000050726F6A65746F204361736120496E74656C6967656E74652E73726563F1
S11300000C946C010C9464040C94A4040C94890165
S11300100C9489010C9489010C9489010C94890134
S11300200C9489010C9489010C9489010C94890124
S11300300C9489010C9489010C9489010C94890114
S11300400C9489010C9489010C9444020C94890148
S11300500C9489010C94E0040C9489010C9489019A
S11300600C9489010C948901F102F102F102F1026C
S1130070F102280328032803280328033E043E042E
S11300803E043E043E043E043E043E043E043E045C
S11300903E043E043E043E043E043E043E043E044C
S11300A03E043E043E043E043E043E043E043E043C
S11300B03E043E043E043E043E043E043E043E042C
S11300C03E043E043E043E043E0461033E043E04FA
S11300D03E04AB023E043E043E043E043E043E04A1
S11300E03E043E043E043E043E046502CE02D003B8
S11300F03E043E043E048802000000000000005F4D
S113010000000007000700147F147F14242A7F2AAC
S11301101223130864623649552250000503000077
S1130120001C2241000041221C0014083E0814084F
S1130130083E08080050300000080808080800605D
S113014060000020100804023E5149453E00427FF1
S1130150400042615149462141454B311814127FF8
S11301601027454545393C4A494930017109050381
S11301703649494936064949291E003636000000E9
S113018056360000081422410014141414140041BB
S11301902214080201510906324979413E7E1111A7
S11301A0117E7F494949363E414141227F414122E6
S11301B01C7F494949417F090909013E4149497A5E
S11301C07F0808087F00417F41002040413F017FB4
S11301D0081422417F404040407F020C027F7F048C
S11301E008107F3E4141413E7F090909063E4151C5
S11301F0215E7F09192946464949493101017F0198
S1130200013F4040403F1F2040201F3F4038403FB7
S113021063140814630708700807615149454300D3
S11302207F41410002040810200041417F00040284
S113023001020440404040400001020400205454A4
S113024054787F484444383844444420384444482B
S11302507F3854545418087E0901020C5252523EFD
S11302607F0804047800447D40002040443D007F22
S11302701028440000417F40007C041804787C0866
S113028004047838444444387C14141408081414BE
S1130290187C7C080404084854545420043F444007
S11302A0203C4040207C1C2040201C3C4030403CF2
S11302B044281028440C5050503C4464544C44008E
S11302C00836410000007F00000041360800100895
S11302D0081008000000000011241FBECFEFD8E072
S11302E0DEBFCDBF11E0A0E0B1E0EAE2F2E102C07E
S11302F005900D92AA3AB107D9F723E0AAEAB1E032
S113030001C01D92AC3AB207E1F70E942B050C9490
S113031013090C940000CF93DF93AC01FB013396D7
S1130320EB019A01ADECBCEC0E94EA089695879526
S113033096958795969587959C01220F331F880F74
S1130340991F880F991F880F991F820F931F9A0175
S1130350281B390BC901805D82939A010E94EA0827
S1130360AC01569547955695479556954795EC1784
S1130370FD07B9F6DF91CF910895CF93DF930E94E3
S11303801E0660E080E00E941D0761E088E091E0C5
S11303900E940A0768EA73E08091AC019091AD0174
S11303A00E948B0161E088EA93E00E940A0768EAF0
S11303B073E08091AA019091AB010E948B0161E0EE
S11303C08FE20E945C0661E088EA93E00E940A07DB
S11303D061E083E40E945C066AE080E00E941D07FD
S11303E061E08FE091E00E940A0761E080910601DC
S11303F0909107010E940A0764E180E00E941D07B2
S113040061E08BE191E00E940A0761E080910401C0
S1130410909105010E940A076EE180E00E941D0789
S113042061E087E291E00E940A07C2E0D1E061E066
S113043088810E945C0661E081E391E00E940A07E2
S113044061E089810E945C0668E280E00E941D07E9
S113045061E085E391E00E940A0761E08091000178
S1130460909101010E940A070E942207DF91CF9117
S113047008959093C5008093C40088E98093C100D7
S11304808EE08093C20008951F920F920FB60F92D0
S113049011242F933F934F935F936F937F938F9385
S11304A09F93AF93BF93CF93DF93EF93FF936091A9
S11304B0C600862F90E0FC01F097E834F10508F0BF
S11304C0DDC1EC5CFF4F0C94E408419A8DE391E0AC
S11304D090930701809306016AE080E00E941D0763
S11304E061E080E491E00E940A076AE080E00E94F3
S11304F01D0761E08FE091E00E940A0761E08091AE
S11305000601909107010E940A070E942207B6C1C2
S113051041988FE491E090930701809306016AE08B
S113052080E00E941D0761E080E491E00E940A07D8
S11305306AE080E00E941D0761E08FE091E00E9484
S11305400A0761E080910601909107010E940A0761
S11305500E94220793C1429A8DE391E09093050192
S11305608093040164E180E00E941D0761E080E45F
S113057091E00E940A0764E180E00E941D0761E0A7
S11305808BE191E00E940A0761E08091040190915F
S113059005010E940A070E94220770C142988FE455
S11305A091E0909305018093040164E180E00E944E
S11305B01D0761E080E491E00E940A0764E180E0A5
S11305C00E941D0761E08BE191E00E940A0761E04F
S11305D080910401909105010E940A070E9422075C
S11305E04DC1C2E0D1E0688370E060537109072E09
S11305F0000C880B990B0E94DF072DEC3CEC4EE7B6
S113060052E40E946B080E94AE0767BD6EE180E071
S11306100E941D0761E080E491E00E940A076EE1F8
S113062080E00E941D0761E087E291E00E940A07D2
S113063061E088810E945C0661E081E391E00E94B0
S11306400A0761E089810E945C060E94220716C1A4
S1130650C2E0D1E08BEF860F898370E065537109A6
S1130660072E000C880B990B0E94DF072DEC3CEC45
S11306704EE752E40E946B080E94AE0768BD6EE12B
S113068080E00E941D0761E080E491E00E940A0777
S11306906EE180E00E941D0761E087E291E00E9424
S11306A00A0761E088810E945C0661E081E391E0D1
S11306B00E940A0761E089810E945C060E94220769
S11306C0DDC083E591E0909301018093000168E22D
S11306D080E00E941D0761E080E491E00E940A0727
S11306E068E280E00E941D0761E085E391E00E94DA
S11306F00A0761E080910001909101010E940A07BC
S11307000E94220788B18670886088B92FE738E391
S113071081E0215030408040E1F700C0000040E417
S113072084E061E070E018C098B19B01082E02C01B
S1130730220F331F0A94E2F79670292B28B98F5F92
S11307409FE728E331E0915020403040E1F700C0BA
S11307500000873009F483E0415031F78BE591E0E4
S1130760909301018093000168E280E00E941D07DC
S113077061E080E491E00E940A0768E280E00E9460
S11307801D0761E085E391E00E940A0761E0809122
S11307900001909101010E940A070E9422076EC085
S11307A082E691E0909301018093000168E280E089
S11307B00E941D0761E080E491E00E940A0768E25C
S11307C080E00E941D0761E085E391E00E940A0732
S11307D061E080910001909101010E940A070E944A
S11307E0220788B18670806488B98FE798E321E096
S11307F0815090402040E1F700C0000040E485E0D3
S113080061E070E018C098B19B01082E02C0220F6D
S1130810331F0A94E2F79670292B28B981503FE7D9
S113082098E321E0315090402040E1F700C00000FF
S1130830823009F486E0415031F78AE691E09093E2
S113084001018093000168E280E00E941D0761E0DD
S113085080E491E00E940A0768E280E00E941D079C
S113086061E085E391E00E940A0761E08091000164
S1130870909101010E940A070E942207FF91EF91C3
S1130880DF91CF91BF91AF919F918F917F916F91A4
S11308905F914F913F912F910F900FBE0F901F903A
S11308A0189588EB9BE0289AE7EEF3E03197F1F78F
S11308B000C000002898E7EEF3E03197F1F700C09C
S11308C00000019781F708951F920F920FB60F92BF
S11308D011242F933F934F935F936F937F938F9341
S11308E09F93AF93BF93EF93FF930E941E066AE01A
S11308F08AE00E941D076AE080E00E941D0762E012
S113090082E791E00E940A076EE184E10E941D07DC
S113091061E08AE791E00E940A070E9422070E9490
S113092051040E94BD01FF91EF91BF91AF919F913E
S11309308F917F916F915F914F913F912F910F9084
S11309400FBE0F901F9018951F920F920FB60F9223
S113095011242F933F934F935F936F937F938F93C0
S11309609F93AF93BF93EF93FF930E941E066AE099
S113097080E00E941D0762E082E791E00E940A077E
S11309806EE18EE10E941D0761E082E891E00E9421
S11309900A070E9422070E9451040E94BD01FF9190
S11309A0EF91BF91AF919F918F917F916F915F91E3
S11309B04F913F912F910F900FBE0F901F9018955C
S11309C01F920F920FB60F9211242F933F934F93C0
S11309D05F936F937F938F939F93AF93BF93EF93A3
S11309E0FF93609178007091790080E090E00E941C
S11309F0DD0720E030EC4FE754E40E943C0720E0A0
S1130A0030E04AEF53E40E946B080E94AE077093F3
S1130A10AD016093AC012091AA013091AB0126177E
S1130A20370740F47093AB016093AA0180E090E033
S1130A300E940109FF91EF91BF91AF919F918F9116
S1130A407F916F915F914F913F912F910F900FBEC6
S1130A500F901F9018958EE787B980E78AB98FE3C6
S1130A6084B98CE08BB983E390E00E94390283EA75
S1130A7084BD85E085BD8AE08093690083E08DBBF9
S1130A8080E480937C008FEE80937A0010927B0048
S1130A908EE380937E000E94DD0578940E94BD0160
S1130AA080E090E00E94F90890E09093AB0180937D
S1130AB0AA018091AC019091AD0186349105D8F0E2
S1130AC00E941E0660E080E00E941D0762E087E845
S1130AD091E00E940A0764E180E00E941D0761E042
S1130AE08FE891E00E940A070E9422070E945104A5
S1130AF00E94BD01DECF60E080E00E941D0761E03E
S1130B0080E491E00E940A0760E080E00E941D07F3
S1130B1061E088E091E00E940A0768EA73E080914E
S1130B20AC019091AD010E948B0161E088EA93E0F1
S1130B300E940A0768EA73E08091AA019091AB01D0
S1130B400E948B0161E08FE20E945C0661E088EA0A
S1130B5093E00E940A0761E083E40E945C060E941D
S1130B6022072FEF89E698E1215080409040E1F779
S1130B7000C000009ECF2998662311F02B9A15C05F
S1130B802B9813C0AC01022E02C0559547950A94C8
S1130B90E2F740FF02C02C9A01C02C982D9A2D98A0
S1130BA02150310978F7299A089527E030E090E040
S1130BB0E9CF60E00E94BB050895CF93DF93219AAB
S1130BC0229A239A249A259A2A9A299A83EC99E0BC
S1130BD00197F1F700C000002A988BE594E401978F
S1130BE0F1F700C000002A9A299881E20E94D905F1
S1130BF083E10E94D90586E00E94D90582EC0E9417
S1130C00D90580E20E94D90589E00E94D90580E8CF
S1130C100E94D90580E40E94D905C8EFD1E061E0C3
S1130C2080E00E94BB052197D1F788E00E94D90596
S1130C308CE00E94D905DF91CF91089580E80E944D
S1130C40D90580E40E94D9051092A6031092A70347
S1130C50EEEAF1E086EA93E01192E817F907E1F78A
S1130C600895262F26952695269590E034E5239F12
S1130C70800D911D1124442379F0FC01E255FE4FAF
S1130C80677081E090E002C0880F991F6A95E2F7CF
S1130C909081892B80830895FC01E255FE4F677093
S1130CA081E090E002C0880F991F6A95E2F7809571
S1130CB090818923808308955F926F927F928F92AF
S1130CC09F92AF92BF92CF92DF92EF92FF920F93D7
S1130CD01F93CF93DF93562E262F30E04901880CC3
S1130CE0991C880C991C820E931E181419040CF07C
S1130CF05DC08901000F111F000F111F000F111F8C
S1130D00021B130B612CA82EB12CC50180975C012A
S1130D10AA0CBB1CAA0CBB1CA80EB91E0F2EF7EA0A
S1130D20CF2EF3E0DF2EF02D0F2EF6EAEF2EF3E0B8
S1130D30FF2EF02D2DC0FE01249130E0872D652D6E
S1130D400E94D80802C0359527958A95E2F720FFBE
S1130D500AC0F6016081670DF701808141E0860DCC
S1130D600E94310609C0F6016081670DF701808198
S1130D7040E0860D0E9431067394872D90E0801721
S1130D809107CCF26394862D90E08815990574F44C
S1130D9010161106BCF7862D652D0E94D808E501B2
S1130DA0C80FD11DC850DF4F712CC5CF8091A60349
S1130DB091E0980F852D880F880F850D890F843554
S1130DC018F48093A6030EC01092A603E7EAF3E09A
S1130DD0808191E0980F852D880F880F880F8519E1
S1130DE0890F80838091A703803320F01092A6039B
S1130DF01092A703DF91CF911F910F91FF90EF9075
S1130E00DF90CF90BF90AF909F908F907F906F9026
S1130E105F9008951F93CF93DF93EC01888188231B
S1130E2041F0162F2196612F0E945C068991811151
S1130E30FACFDF91CF911F9108958093A603609319
S1130E40A70308950F931F93CF93DF9380E80E9425
S1130E50D90580E40E94D905CEEAD1E006EA13E080
S1130E6061E089910E94BB05C017D107C9F7DF91E2
S1130E70CF911F910F9108950E9450070C9431084F
S1130E800E942A0858F00E94230840F029F45F3F8A
S1130E9029F00C941A0851110C9465080C9420083C
S1130EA00E94420868F39923B1F3552391F3951BEB
S1130EB0550BBB27AA2762177307840738F09F5F77
S1130EC05F4F220F331F441FAA1FA9F335D00E2EE4
S1130ED03AF0E0E832D091505040E695001CCAF751
S1130EE02BD0FE2F29D0660F771F881FBB1F261714
S1130EF037074807AB07B0E809F0BB0B802DBF01EB
S1130F00FF2793585F4F3AF09E3F510578F00C94B9
S1130F101A080C9465085F3FE4F3983ED4F3869571
S1130F2077956795B795F7959F5FC9F7880F911DDA
S1130F309695879597F90895E1E0660F771F881FC6
S1130F40BB1F621773078407BA0720F0621B730B79
S1130F50840BBA0BEE1F88F7E09508950E944A08A7
S1130F6088F09F5798F0B92F9927B751B0F0E1F066
S1130F70660F771F881F991F1AF0BA95C9F714C016
S1130F80B13091F00E946408B1E008950C946408B3
S1130F90672F782F8827B85F39F0B93FCCF386954F
S1130FA077956795B395D9F73EF4909580957095AC
S1130FB061957F4F8F4F9F4F0895E89409C097FB29
S1130FC03EF490958095709561957F4F8F4F9F4F1C
S1130FD09923A9F0F92F96E9BB279395F695879560
S1130FE077956795B795F111F8CFFAF4BB0F11F423
S1130FF060FF1BC06F5F7F4F8F4F9F4F16C08823CA
S113100011F096E911C0772321F09EE8872F762FFF
S113101005C0662371F096E8862F70E060E02AF040
S11310209A95660F771F881FDAF7880F969587952C
S113103097F9089597F99F6780E870E060E0089554
S11310409FEF80EC089500240A94161617061806DC
S11310500906089500240A941216130614060506B8
S11310600895092E0394000C11F4882352F0BB0F49
S113107040F4BF2B11F460FF04C06F5F7F4F8F4FAC
S11310809F4F089557FD9058440F551F59F05F3FE7
S113109071F04795880F97FB991F61F09F3F79F096
S11310A087950895121613061406551FF2CF469518
S11310B0F1DF08C0161617061806991FF1CF86959A
S11310C07105610508940895E894BB27662777277E
S11310D0CB0197F908950E947E080C9431080E9470
S11310E0230838F00E942A0820F0952311F00C946C
S11310F01A080C94200811240C9465080E944208D4
S113110070F3959FC1F3950F50E0551F629FF00156
S1131110729FBB27F00DB11D639FAA27F00DB11D6F
S1131120AA1F649F6627B00DA11D661F829F2227F8
S1131130B00DA11D621F739FB00DA11D621F839F7F
S1131140A00D611D221F749F3327A00D611D231F55
S1131150849F600D211D822F762F6A2F11249F57A3
S113116050409AF0F1F088234AF0EE0FFF1FBB1FA6
S1131170661F771F881F91505040A9F79E3F510565
S113118080F00C941A080C9465085F3FE4F3983ED1
S1131190D4F3869577956795B795F795E7959F5F0F
S11311A0C1F7FE2B880F911D9695879597F90895A1
S11311B0991B79E004C0991F961708F0961B881FA5
S11311C07A95C9F780950895EE0FFF1F0590F49165
S11311D0E02D0994A29FB001B39FC001A39F700D9D
S11311E0811D1124911DB29F700D811D1124911D2B
S11311F00895F999FECF92BD81BDF89A992780B5DB
S11312000895262FF999FECF92BD81BDF89A0197D2
S113121000B4021639F01FBA20BD0FB6F894FA9A3A
S10D1220F99A0FBE0895F894FFCF69
S113122A6A0130304F014F0143617361202000533A
S113123A616C613A20202020202000436F7A696E75
S113124A68613A2020200051756172746F733A20E4
S113125A00207C2000476172612E3A20004F4E0024
S113126A2020202020202020202020202020004F61
S113127A464600416272696E646F00416265727427
S113128A610046656368616E2E0046656368616441
S113129A6100414C41524D452100546572726163AB
S11312AA6F00436173610050657269676F2100546E
S11312BA656D7065726174757261202020696E743F
S10D12CA65726E6120616C746100AE
S9030000FC
